:1000000000000120050500002D0500002F0500005F
:100010003105000033050000350500000000000038
:100020000000000000000000000000003705000094
:1000300039050000000000003B0500003D05000000
:100040003F050000651C0000090A0000C909000006
:10005000D90900003F0500008516000001130000CB
:10006000F114000009150000211500003F050000F3
:100070003F0500003F0500003F0500003F05000070
:100080003F0500003F0500003F050000F9090000A2
:10009000CD1C00003F0500003F0500003F050000AB
:1000A0003F0500003F050000391500005115000014
:1000B000ED1700003F0500000000000000000000F8
:1000C0003F0500000118000015180000E9090000B4
:1000D0003F0500003F0500003F0500000000000054
:1000E0000000000000000000000000000000000010
:1000F0000000000000000000000000000000000000
:1001000000000000000000000000000000000000EF
:1001100000000000000000000000000000000000DF
:1001200000000000000000000000000000000000CF
:1001300000000000000000000000000000000000BF
:1001400000000000000000000000000000000000AF
:10015000000000000000000000000000000000009F
:10016000000000000000000000000000000000008F
:10017000000000000000000000000000000000007F
:10018000000000000000000000000000000000006F
:10019000000000000000000000000000000000005F
:1001A000000000000000000000000000000000004F
:1001B000000000000000000000000000000000003F
:1001C000000000000000000000000000000000002F
:1001D000000000000000000000000000000000001F
:1001E000000000000000000000000000000000000F
:1001F00000000000000000000000000000000000FF
:1002000010B5054C237833B9044B13B10448AFF350
:1002100000800123237010BD7C000020000000003E
:10022000F827000008B5034B1BB103490348AFF39F
:10023000008008BD0000000080000020F8270000BA
:10024000154B002B08BF134B9D46A3F5803A0021A8
:100250008B460F461348144A121A01F0AFFD0F4B9C
:10026000002B00D098470E4B002B00D09847002061
:10027000002104000D000D48002802D00C48AFF307
:10028000008001F069FD2000290000F031F801F044
:100290004FFD00BF0000080000000120000000002A
:1002A000000000007C00002000050020000000008D
:1002B000000000004FF080430022C3F8002101221B
:1002C0001A604FF08043D3F80031002BF9D070470B
:1002D00018B1012803D0034870470348704703480A
:1002E000704700BF4027000024270000342700008B
:1002F00010B582B0FFF7DEFF4FF0A0430322C3F832
:10030000302700F0A5F800F02BFB0A4800F088F831
:1003100002238DF807309DF80740E4B29DF80700EE
:10032000FFF7D6FF02462146034800F079F800F0B7
:1003300005F8FCE7F42600000C27000070470023B6
:10034000834202D20133DBB2FAE7704708B5FFF708
:10035000F6FF08BD1D4B1B88A3B1012B19D010B5AA
:10036000991E1B4A1278914219D0BA2822D0DA2855
:1003700024D05C1EA24225DB164A50540133134A96
:10038000138011E0BA2800D0704701330F4A138060
:1003900070470F4A107001330C4A13807047DA28F7
:1003A00003D00A4B00221A8010BD0A491046FFF7FD
:1003B000CDFFF6E7054B01221A80F5E7034B00223B
:1003C0001A80F1E7014B00221A80EDE72802002095
:1003D000B4020020280100200F4B1B68DBB970B568
:1003E00006460D4B01221A600C4B1B680BB1002511
:1003F00004E000F02DF8FAE70135ADB27419735D31
:100400002BB1207800F012FA0028FAD1F4E7024B61
:1004100000221A6070BD7047300200202C020020BC
:100420000FB430B583B006AB53F8042B0193074CDF
:100430008021204601F0F6FC05462046FFF7CCFF60
:10044000284603B0BDE8304004B070479800002053
:1004500030B587B06C460E4D0FCD0FC495E8030044
:1004600084E803000B490C4B0B6080234B600B4A64
:100470008A60CB6007230A4A684600F051F9094BAD
:1004800001221A600848FFF7A7FF07B030BD00BF80
:10049000502700001801002034020020B80200207C
:1004A000AD0400002C0200206827000000B583B0D6
:1004B0000378042B18D8DFE803F003140D171A0093
:1004C0000DF1070000F092F970B99DF80700FFF7F1
:1004D00041FFF5E74368012B06D10748FFF77CFF92
:1004E00002E00648FFF778FF03B05DF804FB04481C
:1004F000FFF772FFF8E700BF7C27000088270000A5
:10050000942700000649074A074B9B1A03DD043B6A
:10051000C858D050FBDC01F069FAFFF791FE0000EB
:1005200004280000000000207C000020FEE7FEE719
:10053000FEE7FEE7FEE7FEE7FEE7FEE7FEE7FEE793
:1005400000B585B0002101910291039001AA44F207
:10055000010000F003F805B05DF804FB72B6094B2A
:100560001B6813F0010F00D000BEBFF34F8F064988
:10057000CA6802F4E062054B1343CB60BFF34F8FB0
:1005800000BFFDE7F0ED00E000ED00E00400FA053B
:1005900072B6024A136801331360704738030020B3
:1005A000034A1368013B136003B962B6704700BF8A
:1005B0003803002008B5FFF7EBFF08BD08B5FFF7CB
:1005C000EFFF08BD0B4651B15AB1511E0A420AD184
:1005D0000360818000238360C360184670470E204B
:1005E000704709207047092070478268C3689B1ACA
:1005F00082889A4201D20420704710B40368C4680C
:1006000022409954C3680133C36000205DF8044B55
:1006100070478268C3689A420DD010B4026883683C
:1006200084882340D35C0B7083680133836000208F
:100630005DF8044B704705207047000000B583B09B
:100640000378012B07D05AB2002A47D0022B36D0AC
:1006500003B05DF804FB037A2BB9012229492A482B
:1006600000F0C6FDF4E7436819782848FFF7BDFF9E
:1006700090B101228DF800200190254B1B6868463F
:100680009847224A9168D3685B1A92889A4210D29E
:10069000204B01221A70DBE71C4B9A68DB689A42F8
:1006A000EFD000238DF80030194B1B68684698473F
:1006B000E7E701221349144800F09AFDC8E7022336
:1006C0008DF80030C368019301220E490E4800F0F6
:1006D0008FFD0F4B1B6868469847B9E70E490F48D6
:1006E000FFF797FF38B103238DF80030084B1B68E4
:1006F00068469847ACE701220749034800F024FD0B
:10070000A6E700BF6403002004000020400300208F
:100710003C03002050030020680300205403002005
:10072000F0B589B0284C226000294BD00C461F46FA
:1007300005468A8809682548FFF744FF024610B13C
:10074000104609B0F0BDA289A1682148FFF73AFF21
:1007500002460028F4D16C461E4E0FCE0FC496E818
:100760000F0084E80F006B6906932B7C003318BFE1
:1007700001238DF814308DF81C706B7C03B30E23AD
:100780008DF81530EB680293AB6803932B680193E7
:100790006B680093104A6946104800F0A1F80246C1
:1007A0000028CDD10E4B002119702B68B3F1FF3F0B
:1007B000C6D001220B490C4800F01AFD0246BFE7E3
:1007C0000023DDE70722BBE73C03002040030020B5
:1007D00054030020A02700003D0600000000002078
:1007E00050030020640300200400002038B50B4BA8
:1007F0001D7801460A48FFF70CFF04460DB9204654
:1008000038BD064B00221A7001220649064800F046
:10081000EFFC0028F3D0FFF793FEF0E75003002031
:1008200040030020640300200400002010B50146AE
:100830000C48FFF7DAFE044608B1204610BD0A480E
:1008400000F074FC0028F8D108490648FFF7E1FEE3
:100850000028F2D101220549034800F075FC044646
:10086000EBE700BF540300200400002068030020D1
:1008700000B585B003788DF8003043680193836834
:100880008DF80830C3680393054B53F82130054AAF
:1008900052F821106846984705B05DF804FB00BF88
:1008A000700300206C03002000B585B003788DF83C
:1008B00000304368019383688DF80830C368039360
:1008C000054B53F82130054A52F8211068469847E5
:1008D00005B05DF804FB00BF700300206C0300202E
:1008E000F0B589B0064694460778184B43F82720A0
:1008F0000A69174B43F8272091F81DE0154B03F8C0
:1009000007E06D460C460FCC0FC594E80F0085E854
:100910000F000497BEF1000F0BD0301DBCF1000F8B
:1009200001D0DFF834C06246694600F0B9FB09B077
:10093000F0BD06F10C00BCF1000F01D0DFF81CC0C7
:100940006246694600F008FAF1E700BF7003002034
:100950006C030020EC04002071080000A9080000CE
:10096000034B6FF07F425A6005221A60704700BF48
:1009700010E000E00E4B984210D0B0F1402F0FD0A5
:1009800003F5003398420DD0A3F5803398420BD085
:10099000A3F58833984209D1064870470648704746
:1009A0000648704706487047064870470020704761
:1009B0000030004094030020740300207C030020DA
:1009C000840300208C03002008B5024B1B68984765
:1009D00008BD00BF7403002008B5024B1B68984790
:1009E00008BD00BF7C03002008B5024B1B68984778
:1009F00008BD00BF8403002008B5024B1B68984760
:100A000008BD00BF8C03002008B5024B1B68984747
:100A100008BD00BF9403002070B50E46FFF7AAFF83
:100A200070B104460020FFF7C5FD257915B9266091
:100A3000012323710020FFF7C1FD1DB9002000E054
:100A4000002070BD1120FCE710B40B68B3F1FF3F2C
:100A50000CD0012202FA03F34FF0A042C2F808358D
:100A60000B6803F5E073032442F823404B68B3F1AD
:100A7000FF3F06D003F5E0734FF0A042002442F898
:100A8000234003688A69C3F8242502684B7D0C7DE6
:100A90002343C2F86C3503680A684C68C3F81445F0
:100AA000C3F80C250B7D012B02D05DF8044B704779
:100AB0008B68B3F1FF3F06D003F5E0734FF0A0421F
:100AC000002442F82340CB68B3F1FF3F0CD0012251
:100AD00002FA03F34FF0A042C2F80835CB6803F5E1
:100AE000E073032442F823400368C8688A68C3F8A7
:100AF0000805C3F81025D8E782B003680022C3F8C0
:100B00001C21D3F81C310193019B0368C3F84421D5
:100B1000D3F844310093009B0368134AC3F80423BD
:100B200003681B0B5AB2002A17DB4901C9B202F154
:100B3000604202F5614282F8001303681B0B5AB24F
:100B4000002A08DB03F01F035209012101FA03F315
:100B5000064941F8223002B0704703F00F03490103
:100B6000C9B2034AD154E8E78000020000E100E086
:100B700014ED00E082B00023C0F81C31D0F81C3125
:100B80000193019B8A680B6AD25C0B6A01330B628A
:100B9000C0F81C2502B0704782B08B6983B1002376
:100BA000C0F80831D0F808310193019BCA684B6A3C
:100BB000D0F81805D0544B6A01334B6202B070472D
:100BC000C0F80831D0F808310093009BD0F81835F0
:100BD000F4E700B585B001238DF800300291019251
:100BE000436801686846984705B05DF804FB00B5A6
:100BF00085B000238DF80030029182680192436134
:100C0000436801686846984705B05DF804FB30B555
:100C100087B004460D46D0F8043313F4007F26D085
:100C2000D0F824311BB30023C0F82431D0F824318C
:100C30000093009B4FF40173C0F8083391F82930FA
:100C40000BB90123436002238DF80830D4F88034B7
:100C5000C4F880340593AB690493EB6803930023D5
:100C6000AB61EB616B68296802A8984707E0D4F88C
:100C7000043313F0040F02D0D4F8083143BBD4F886
:100C80001C318BB16B692A6A9A4203D295F82830DD
:100C9000002B44D00023C4F81C31D4F81C3101933C
:100CA000019B6B69002B3FD1D4F8443173B1002311
:100CB000C4F84431D4F844310293029B95F82930AA
:100CC0000BB101232360AB69002B32D107B030BDDB
:100CD00029462046FFF760FFAA696B6A9A42CED187
:100CE000EB6983B995F829300BB9012363604FF4A0
:100CF0000173C4F808330023AB61696AEA682846C7
:100D0000FFF767FFBBE7EA68696AAB612B69EB60D5
:100D10000023EB616B622846FFF75BFFAFE72946D4
:100D20002046FFF727FFBFE769692846FFF75FFF07
:100D3000BAE70023AB61696AEA682846FFF749FF12
:100D4000C4E7000008B502490248FFF760FF08BD8C
:100D50009C030020002000402DE9F04104791D4D46
:100D60002C2303FB045393F82A306BBB17460E4623
:100D7000054619490068FFF74FFE804638BB3146EB
:100D80002846FFF761FE134A2C2303FB04F3D11816
:100D90004F603169D1501FB1317F2846FFF7ACFE5B
:100DA0002B680422C3F800250A4B2C2202FB0434D2
:100DB0000023A361E36184F829306361012384F88F
:100DC0002A304046BDE8F0814FF00808F9E74FF0BF
:100DD0001108F6E79C030020450D000010B40B68D5
:100DE000B3F1FF3F0CD0012202FA03F34FF0A0420F
:100DF000C2F808350B6803F5E073032442F823407A
:100E00004B68B3F1FF3F06D003F5E0734FF0A0420B
:100E1000002442F8234003688A69C3F82425026845
:100E20004B7D0C7D2343C2F86C3503680C684A681F
:100E3000C3F80C45C3F814250B7D012B02D05DF8D7
:100E4000044B70478B68B3F1FF3F06D003F5E073A6
:100E50004FF0A042002442F82340CB68B3F1FF3F9B
:100E60000CD0012202FA03F34FF0A042C2F8083579
:100E7000CB6803F5E073032442F823400368C86895
:100E80008A68C3F80805C3F81025D8E786B0026859
:100E90000023C2F81031D2F810210592059A026899
:100EA000C2F82031D2F820210492049A0268C2F8D4
:100EB0002431D2F824210392039A0268C2F8443103
:100EC000D2F844210292029A0268C2F85831D2F84C
:100ED00058310193019B0368134AC3F80423036844
:100EE0001B0B5AB2002A17DB4901C9B202F160425A
:100EF00002F5614282F8001303681B0B5AB2002A04
:100F000008DB03F01F035209012101FA03F307492B
:100F100041F8223006B0704703F00F034901C9B20F
:100F2000034AD154E8E700BF1003420000E100E0AB
:100F300014ED00E000B585B001238DF8003002917A
:100F40000192436801686846984705B05DF804FB64
:100F500000B585B000238DF80030029182680192BF
:100F60004361436801686846984705B05DF804FB33
:100F700030B589B004460D46D0F82431002B44D05A
:100F80000023C0F82431D0F824210092009A0222D4
:100F90008DF81020D0F88024C0F880240792D0F873
:100FA0003C250692CA6805928B61CB614B68096843
:100FB00004A89847D4F844314BB10023C4F8443115
:100FC000D4F844310293029BAB69002B47D1D4F88B
:100FD00020315BB10023C4F82031D4F820310393D1
:100FE000039B0123E3606B69002B42D1D4F8583195
:100FF0004BB10023C4F85831D4F858310493049B02
:101000006B69002B3BD109B030BDD0F81031002BFB
:10101000D0D00023C0F81031D0F810310193019BDB
:10102000D0F83C15AB698B42C4D1EB6983B1EA6857
:10103000D0F8003223F02003C0F80032EB69AB6136
:101040002B69EB600023EB612846FFF773FFB1E7E4
:101050000023AB61EA682846FFF76CFFAAE700238C
:10106000AB61EB61D4F83C15EA682846FFF762FFF4
:10107000ADE7D4F84C152846FFF76AFFB6E7D4F879
:101080004C152846FFF764FFBDE7000008B502498C
:101090000248FFF76DFF08BDC80300200020004094
:1010A0002DE9F041047904EBC4039D001D4B2B4452
:1010B00093F820307BBB17460E4605461A49006858
:1010C000FFF7AAFC804648BB31462846FFF786FE5C
:1010D0001449E30023449A008B185F6033698B50F6
:1010E0001FB1317F2846FFF7D1FE2B680822C3F8D5
:1010F00000250C49E200101983000B440020986180
:10110000D86158611444A3001944012381F82030A8
:101110004046BDE8F0814FF00808F9E74FF01108AC
:10112000F6E700BFC80300208D100000037903EB31
:10113000C3039A00034B13445869003018BF0120C1
:10114000704700BFC8030020F0B583B0067901F0F6
:101150006043B3F1005F02D0102003B0F0BD17462A
:101160000D460446FFF7E2FF00283CD1F20032446E
:1011700093001E4A13445F619D6022680021C2F8FB
:101180002011D2F820210192019A2268C2F8581148
:10119000D2F858210092009A22685969C2F8445541
:1011A000C2F848152268012191605B680BB10020EC
:1011B000D3E72368D3F82021D3F858010AB90028CF
:1011C000F7D038B90122DA602368D3F85831002B00
:1011D000FAD000E00F2006EBC606B200034B134422
:1011E00000225A61B9E71120B7E700BFC803002009
:1011F000F0B482B00346007901F06044B4F1005FBE
:1012000079D100EBC004A5003C4C2C44666826B1A3
:101210001C684FF40475C4F8085300EBC004A50023
:10122000364C2C44A469A4B1344C2C44E46944B930
:10123000324DC4002718BE002E443161F2610120F6
:1012400010E026B11B684FF40472C3F80423112088
:101250002EE02A4EC4002718BD003544AA61E9607B
:101260000020E8611C680025C4F81051D4F8104132
:101270000194019C1C68C4F84451D4F84441009482
:10128000009C1C68C4F83415C4F8382598B91A684D
:10129000012111601D7905EBC5029100174A0A442E
:1012A000526882B11B684FF40472C3F80423002013
:1012B00002B0F0BC70471968D1F8002242F0200259
:1012C000C1F80022E6E71A68D2F81041D2F84411BA
:1012D000D2F8240114B909B90028F4D005EBC505EA
:1012E000AA00064B134400229A6100B10320002992
:1012F000DED00F20DCE71020DAE700BFC8030020B3
:1013000010B588B0614B1B68002B2AD05F4B0022C0
:101310001A601B680093009B5D4B93F82E2012B15E
:1013200093F82F30EBB100238DF81430584B5968E7
:1013300006911989ADF81C10D96800295AD0544B70
:10134000188B5883596018810021D96012B9514B0C
:1013500001221A604E4C236805A89847002384F8A0
:101360002F304B4B93F82E3033B34B4B1B681BB3D2
:10137000494B00221A601B680193019B444A538B1E
:1013800092F82D108AB2934237D99B1A9BB24048EB
:10139000438342680089C31A02EB43033D4AC2F803
:1013A0002C36C2F83016394B00221A601B680293A3
:1013B000029B3A4B01221A60394B1B686BB1384BC8
:1013C00000221A601B680393039B314B1A7402229C
:1013D0008DF814201B6805A89847324B1B683BB357
:1013E000304A0023136012680592059A284A137444
:1013F00008B010BD00221A74ACE7934208D09342A3
:10140000D1D1234B012283F82F2000225A83CAE72F
:101410001F48C0680028F2D01D4B012283F82F20FE
:1014200000225A831B4BC3F82C06C3F83016BAE7C8
:10143000174B5C69002CDBD0B4FA84F34FF0004208
:10144000DA4024EA020446339B0003F1804202F5AD
:10145000E04211680029EDD0002111601268049269
:10146000049A01228DF81420A3F58C73C3F3C702EC
:101470008DF8182013F0040F0CBF01230B468DF8D4
:101480001930034B1B6805A89847D3E70471004047
:10149000EC03002000700040007100400470004028
:1014A0001071004014710040F0B583B005460F463E
:1014B0001646002401E00134E4B2B44215D2A00083
:1014C00000F5A0704FF48033A3402A58002AF2D0D0
:1014D000D5F804231342EED000232B502B58019350
:1014E000019B3B6879689847E5E703B0F0BD0000D1
:1014F00008B5042202490348FFF7D6FF08BD00BF24
:101500001C0400200080004008B504220249034862
:10151000FFF7CAFF08BD00BF28040020009000406C
:1015200008B5042202490348FFF7BEFF08BD00BF0B
:101530003404002000A0004008B5062202490348F8
:10154000FFF7B2FF08BD00BF4004002000A001402B
:1015500008B5062202490348FFF7A6FF08BD00BFF1
:101560004C04002000B00140034B184490F9500097
:1015700000F03F00704700BF58040020034B1844A0
:1015800090F95000C0F38110704700BF580400204C
:1015900010B4044600234BB94FF0A042D2F82015F6
:1015A00044F8041BC2F820150133F4E700231BB1F3
:1015B00000205DF8044B704750F823200AB901332E
:1015C000F5E70120F5E70000F8B5064655E04FF0D5
:1015D000030C29E0012847D10146284698470134E9
:1015E000032C46D8264B234493F95030B3F1FF3FE8
:1015F000F5D02046FFF7B8FF0546C20800F0070106
:1016000001238B40B25C1342E9D02046FFF7B6FFBE
:1016100005F5E0734FF0A04252F82370C7F301477D
:10162000022FD4D04FF0020C4FF0A04305F5E0722A
:1016300053F8221021F4403143F8221053F82210BD
:1016400041EA0C4143F822100122AA40C3F82025A8
:101650000B4B5A1992F9302053F82230002BBED090
:101660000328B9D0022FB5D0032FB8D10228B6D1A4
:10167000B2E73046FFF78CFF08B10024B0E7F8BDB1
:101680005804002070B584B00025039501204FF464
:101690008073294603E0400004339BB201310729DF
:1016A00012D803F1804202F5C0421468012CF2D135
:1016B000254CD4F804432042EDD000241460126875
:1016C0000192019A0543E6E7204B1B68012B06D0E7
:1016D00015F0FF0F31D1002D32DB04B070BD1B4A75
:1016E0000023136012680292029A45F0004503A895
:1016F00008E04FF0A042D2F8201540F8041BC2F8D1
:1017000020150133002BF4D0E2E776000134072CDA
:10171000E1D83542F9D00C4B04F5A27253F82200FF
:10172000C0F3042053F82210C1F30141084B53F8D1
:101730002430002BE9D09847E7E701260024E6E7AC
:1017400003A8FFF741FFC8E7006000407C6100404C
:101750005804002030B585B004460D46D0F810314D
:1017600073B10023C0F81031D0F810310093009B02
:101770004B7913F0040F03D00B680BB1012098478D
:10178000D4F8143173B10023C4F81431D4F81431EF
:101790000193019B6B7913F0080F03D02B680BB1F9
:1017A00002209847D4F81C3173B10023C4F81C31CF
:1017B000D4F81C310293029B6B7913F0100F03D104
:1017C0002B680BB100209847D4F8043163B1002393
:1017D000C4F80431D4F804310393039B01232B7123
:1017E0002B680BB10320984705B030BD08B50249FE
:1017F0000248FFF7AFFF08BDB404002000C001405D
:1018000008B502490248FFF7A5FF08BDBC04002047
:101810000010024008B502490248FFF79BFF08BDCF
:10182000C404002000200240064B1B68B3F1FF3FB8
:1018300003D0062B04D000207047034B1B78F8E739
:101840000120704730010010E00F00F0074B1A78BC
:1018500008331B68C3F30313062A01D00020704726
:10186000032B01D00020704701207047E00F00F0EB
:10187000064B1B68B3F1FF3F03D0062B04D00020BA
:101880007047034B1B78F8E70120704730010010C8
:10189000E00F00F0074B1A7808331B68C3F30313FB
:1018A000062A01D000207047032B01D0002070478A
:1018B00001207047E00F00F0064B1B68B3F1FF3FBB
:1018C00003D0062B04D000207047034B1B78F8E7A9
:1018D0000120704730010010E00F00F0074B1A782C
:1018E00008331B68C3F30313062A01D00020704796
:1018F000032B01D00020704701207047E00F00F05B
:10190000074B1A7808331B68C3F30313062A01D068
:1019100000207047032B01D0002070470120704742
:10192000E00F00F00C4B1B68B3F1FF3F05D00B4AF2
:101930001268062B08D000207047094B1B78094A13
:101940001268C2F30312F4E7033A012A01D9012015
:1019500070470020704700BF3001001034010010B4
:10196000E00F00F0E80F00F0064B1B68B3F1FF3FFB
:1019700003D0062B04D000207047034B1B78F8E7F8
:101980000120704730010010E00F00F0064B1B688B
:10199000B3F1FF3F03D0062B04D000207047034B68
:1019A0001B78F8E70120704730010010E00F00F0CD
:1019B000084B1B68084A1268062B01D000207047AC
:1019C000032A05D3052A01D800207047012070475B
:1019D000012070473001001034010010014B024A11
:1019E0001A6070470C0000200090D00308B5FFF784
:1019F0001BFF28B17B4B1B68C3F304237A4A136097
:101A0000FFF724FF10B1794B794A1A60FFF730FFD6
:101A100028B1784B1B68C3F34233774A1360FFF752
:101A200039FF20B1754AD36823F08073D360FFF784
:101A300043FF40B14FF080430022C3F80C21C3F8AC
:101A40001021C3F83825FFF749FF10B16C4B032272
:101A50001A60FFF755FF58B16A4B05221A607833B8
:101A600001221A60703B00221A60043B3F221A6078
:101A7000FFF758FF002846D04FF08052D2F80414E8
:101A8000614BC3F82015D2F80814C3F82415D2F816
:101A90000C14C3F82815D2F81014C3F82C15D2F87A
:101AA0001414C3F83015D2F81814C3F83415D2F84A
:101AB0001C14C3F84015D2F82014C3F84415D2F80A
:101AC0002414C3F84815D2F82814C3F84C15D2F8DA
:101AD0002C14C3F85015D2F83014C3F85415D2F8AA
:101AE0003414C3F86015D2F83814C3F86415D2F86A
:101AF0003C14C3F86815D2F84014C3F86C15D2F83A
:101B00004424C3F87025FFF72FFF28B13F4B1B6813
:101B100003F04F033E4A1360FFF738FF60B14FF008
:101B20008043D3F8003413F0010F05D04FF0804309
:101B30006FF00102C3F80024FFF73AFF20B1354AE5
:101B4000136843F480631360334AD2F8883043F457
:101B50007003C2F88830BFF34F8FBFF36F8F4FF021
:101B60001023D3F80032002B08DB4FF01023D3F8FA
:101B70000432002B02DBFFF731FF08BD274B0122A7
:101B8000C3F80425254BD3F80034002BFAD04FF0CE
:101B900010231522C3F80022204BD3F80034002B69
:101BA000FAD04FF010231522C3F804221B4BD3F8B0
:101BB0000034002BFAD0194B0022C3F80425174B30
:101BC000D3F80034002BFAD0BFF34F8F1249CA6804
:101BD00002F4E062124B1343CB60BFF34F8F00BFA0
:101BE000FDE700BF240300104035014074C00740EA
:101BF0000DF0ADBA440200103C050040F0ED00E0ED
:101C0000A00500401056004000C0004058020010DF
:101C1000E40E00403C17004000ED00E000E0014011
:101C20000400FA050C4B1B7893B198B110B40B4B20
:101C30000222C3F88020BFF34F8FBFF36F8F084994
:101C40000C680460002008601A605DF8044B70475F
:101C5000082070470E207047CC04002000E100E00F
:101C6000D404002008B5174BD3F800314BB1154B05
:101C7000D3F8043313F0010F03D0124B0022C3F842
:101C80000021104BD3F80C314BB10E4BD3F8043379
:101C900013F0080F03D00B4B0022C3F80C21094BA3
:101CA000D3F810316BB1074BD3F8043313F0100F96
:101CB00007D0044B0022C3F81021034B1B6803B16B
:101CC000984708BD00100040DC04002000B585B036
:101CD000154B1B68029303A8FFF7A4FF08BB134B27
:101CE0001B68F3B1039A12F0010F04D000228DF8A3
:101CF000042001A89847039B13F0020F06D001238C
:101D00008DF80430094B1B6801A89847039B13F01A
:101D1000040F06D002238DF80430044B1B6801A881
:101D2000984705B05DF804FBD8040020D0040020DB
:101D300008B5074B044613B10021AFF30080054BF3
:101D40001868836A03B19847204600F0C5FC00BFBD
:101D500000000000C027000070B50D4D0D4C641B45
:101D6000A4100026A64209D10B4D0C4C00F0B6FC85
:101D7000641BA4100026A64205D170BD55F8043B93
:101D800098470136EEE755F8043B98470136F2E7ED
:101D900074000020740000207400002078000020EF
:101DA0000A44914200F1FF3300D1704710B511F899
:101DB000014B03F8014F9142F9D110BD0244034693
:101DC000934200D1704703F8011BF9E730B5141EA8
:101DD00005469BB0184605DA8B232B604FF0FF3089
:101DE0001BB030BD4FF40273ADF80C3014BF04F1DA
:101DF000FF332346029305934FF6FF73009104913E
:101E0000ADF80E3002461E9B6946284600F074F875
:101E1000431CBCBF8B232B60002CE1D0009B002215
:101E20001A70DDE707B5009313460A4601460348DA
:101E30000068FFF7CBFF03B05DF804FB1000002043
:101E40002DE9F0478E689E4282460C4691469846A0
:101E500038D8B1F80CC01CF4906F31D06269256895
:101E6000096902EB42026F1A02EBD272013355107C
:101E70003B449D4238BF1D461CF4806F30D029463C
:101E800000F076FB064650B90C23CAF80030A3894F
:101E900043F04003A3814FF0FF30BDE8F0873A469E
:101EA0002169FFF77DFFA38923F4906343F080034A
:101EB000A381266165613E44ED1B2660A560464610
:101EC000464500D9464632464946206800F0E8FAC1
:101ED000A3689B1BA36023681E4426600020DCE7E8
:101EE0002A4600F09FFB06460028E2D121695046B1
:101EF00000F0F0FAC8E700002DE9F04F1E468B898C
:101F00001B069DB007460D4614460ED50B6963B9F6
:101F1000402100F02DFB2860286120B90C233B6094
:101F20004FF0FF30C9E040236B6100230993202369
:101F30008DF82930DFF89C91039630238DF82A30F4
:101F40004FF0010A23461E4613F8012B0AB1252A39
:101F5000F9D1B6EB040B0BD05B4622462946384636
:101F6000FFF76EFF013000F0A380099B5B440993EB
:101F70003378002B00F09C8000234FF0FF32CDE936
:101F800005230136049307938DF853301A93344692
:101F9000052214F8011B4F4800F032FA049BC0B927
:101FA000D90644BF20228DF853201A0744BF2B22A4
:101FB0008DF8532032782A2A13D0079A344600200D
:101FC0000A26214611F8013B303B092B4BD970B949
:101FD00014E0A0EB09000AFA00F01843049026462A
:101FE000D5E7039A111D12680391002A01DB0792BD
:101FF00004E0524243F002030792049323782E2B0D
:102000000CD163782A2B33D1039B1A1D1B680392D2
:10201000002BB8BF4FF0FF33023405932E4E2178CA
:102020000322304600F0ECF938B14023801B03FA5C
:1020300000F0049B03430134049314F8011B274868
:102040008DF82810062200F0DBF9002838D0244B48
:1020500013BB039B073323F0070308330393099B48
:10206000434409936EE706FB023201200C46A8E7C1
:1020700000230134059319460A26204610F8012B47
:10208000303A092A03D9002BC8D00591C6E706FBD0
:10209000012101230446F0E703AB00932A46114BCC
:1020A00004A93846AFF30080B0F1FF3F8046D6D197
:1020B000AB895B063FF534AF09981DB0BDE8F08FE2
:1020C00003AB00932A46074B04A9384600F082F878
:1020D000EAE700BFC4270000CA270000CE2700009F
:1020E00000000000411E00002DE9F04791461F4608
:1020F0008A680B69DDF820809342B8BF1346C9F89F
:10210000003091F8432006460C4612B10133C9F85D
:1021100000302368990642BFD9F800300233C9F86D
:102120000030256815F0060507D104F1190AE368A7
:10213000D9F800209B1AAB4228DC94F8433022687F
:10214000003318BF012392062DD404F1430239460F
:102150003046C047013020D02368E568D9F8002018
:1021600003F00603042B08BFAD1AA36822690CBF55
:1021700025EAE57500259342C4BF9B1AED184FF080
:1021800000091A344D451AD1002008E001235246B7
:1021900039463046C047013003D14FF0FF30BDE82B
:1021A000F0870135C3E7E1185A1C302081F843005D
:1021B000224494F8451082F843100233C5E7012306
:1021C000224639463046C0470130E6D009F10109C0
:1021D000D8E700002DE9F04306460C4601F1430024
:1021E000097E85B06E29984617460C9B00F0BA8090
:1021F00024D8632939D00AD8002900F0C38058298F
:1022000000F0918004F1420584F8421035E0642921
:1022100001D06929F6D125681A6815F0800F02F1FE
:1022200004012CD012681960002A03DA2D235242CF
:1022300084F84330DFF8BCC10A233FE0732900F083
:10224000A58008D86F2921D07029DBD1226842F0FF
:102250002002226003E0752918D07829D2D1782293
:1022600084F84520DFF890C161E01A68111D1960FB
:10227000136884F8423004F14205012393E01268A8
:10228000196015F0400F18BF12B2CDE7D4F800C0A6
:102290001A681CF0800F02F104051D6001D012685D
:1022A00003E01CF0400FFAD01288DFF848C16F2914
:1022B0000CBF08230A23002184F843106568A56039
:1022C000002DA2BF216821F0040121600AB9002D70
:1022D00046D00546B2FBF3F103FB112E93421CF8E6
:1022E0000EE005F801ED39D9082B0BD12368DA0788
:1022F00008D5236962689A42DEBF302305F8013CA5
:1023000005F1FF35401B2061CDF800803B4603AA54
:1023100021463046FFF7E8FE013049D14FF0FF304B
:1023200005B0BDE8F083DFF8CCC084F845101D6827
:10233000216855F8042B1D600D060BD5CD0744BF51
:1023400041F0200121601AB9236823F020032360A3
:102350001023B0E74B0648BF92B2EFE70A46B9E751
:102360000546C1E71A68D4F800C06169151D1D60F3
:102370001CF0800F136801D0196003E01CF0400FBF
:10238000FAD01980002323610546BDE71A68111DA4
:102390001960156862680021284600F031F808B11C
:1023A000401B606063682361002384F84330ABE71F
:1023B00023692A4639463046C0470130AED02368EB
:1023C0009B0713D4E068039B9842B8BF1846A7E761
:1023D00001234A4639463046C04701309ED0013578
:1023E000E368039A9B1AAB42F2DCEBE7002504F1A9
:1023F0001909F5E7D5270000E627000000000000D6
:1024000001F0FF01102A2BDB10F0070F08D010F8A5
:10241000013B013A8B422DD010F0070F42B3F6D1A9
:10242000F0B441EA012141EA014122F007047FF0C2
:1024300000070023F0E80256083C85EA010586EA19
:10244000010685FA47F5A3FA87F586FA47F6A5FA55
:1024500087F68EB9EED1F0BC01F0FF0102F0070261
:1024600032B110F8013B013A83EA010313B1F8D10C
:102470000020704701387047002D06BF35460338ED
:10248000073815F0010F07D1013015F4807F02BF26
:10249000013015F4C03F0130F0BC0138704700BF77
:1024A000884210B501EB020302D983421C4607D8CB
:1024B000421E994208D011F8014B02F8014FF8E78B
:1024C00083189A1A9A4200D110BD14F8011D03F81E
:1024D000011DF7E738B50546002945D051F8043C01
:1024E0000C1F002BB8BFE41800F0D2F81F4A136885
:1024F000104633B9636014602846BDE8384000F0E8
:10250000CDB8A3420CD921686218934204BF1A685F
:102510005B68636004BF521822600460ECE71346F6
:102520005A680AB1A242FAD919685818A0420BD1C8
:1025300020680144581882421960DDD11068526841
:102540005A6001441960D7E702D90C232B60D3E706
:10255000206821188A4204BF11685268626004BF73
:10256000091821605C60C7E738BD00BFE0040020A7
:10257000F8B5CD1C25F0030508350C2D38BF0C250A
:10258000002D064601DBA94203D90C23336000204D
:10259000F8BD00F07DF821490A6814469CB9204F27
:1025A0003B6823B92146304600F062F8386029467E
:1025B000304600F05DF8431C23D10C2333603046D5
:1025C00000F06CF8E3E723685B1B17D40B2B03D9EF
:1025D00023601C44256004E06368A2420CBF0B60CA
:1025E0005360304600F05AF804F10B00231D20F030
:1025F0000700C21ACCD01B1AA350C9E72246646850
:10260000CCE7C41C24F00304A042E3D0211A3046D6
:1026100000F02EF80130DDD1CFE700BFE00400204C
:10262000E4040020F8B5074614460E4621B91146C9
:10263000BDE8F840FFF79CBF22B9FFF74BFF2546E6
:102640002846F8BD00F030F8A0420FD221463846A7
:10265000FFF78EFF05460028F2D031462246FFF7ED
:102660009FFB31463846FFF735FFE9E73546E7E798
:1026700038B5064C002305460846236000F01EF8D6
:10268000431C02D1236803B12B6038BDF004002045
:10269000014800F011B800BFF8040020014800F024
:1026A0000CB800BFF804002051F8043C181F002BA0
:1026B000BCBF0B58C018704770477047044A0549A3
:1026C0001368002B08BF0B4618441060184670476B
:1026D000E804002000050020FEE700BFF8B500BFB9
:1026E000F8BC08BC9E467047F8B500BFF8BC08BCF3
:1026F0009E4670474E5246353238333220696E69F5
:102700007469616C6973E90A000000004D79206901
:10271000642069732025642E204920616D202225C4
:1027200073220A00426173652053746174696F6E8D
:1027300000000000536D617274204C69676874007A
:10274000756E6B6E6F776E206F626A6563740000E2
:10275000080000000600000007000000090000005B
:10276000000000000000D6017561727420696E6976
:102770007469616C697A65640A0000006F7665723D
:1027800072756E0A000000006669666F20657272DD
:102790006F720A0064617461206572726F720A0060
:1027A000FFFFFFFFFFFFFFFFFFFFFFFFFFFFFFFF39
:1027B00000000000000000000000D601060000003C
:1027C00014000020232D302B2000686C4C0065661F
:1027D0006745464700303132333435363738394172
:1027E0004243444546003031323334353637383988
:0C27F00061626364656600000000000088
:0827FC0044DAFF7F0100000038
:102804000000000000200040000000000090D00301
:102814001400002000000000000000000000000080
:1028240000000000000000000000000000000000A4
:102834000000000000000000000000000000000094
:102844000000000000000000000000000000000084
:102854000000000000000000000000000000000074
:102864000000000000000000000000000000000064
:0C2874000000000025020000010200002E
:0400000300000505EF
:00000001FF
